{
  "_format": "hh-sol-artifact-1",
  "contractName": "Tender",
  "sourceName": "contracts/Tender.sol",
  "abi": [
    {
      "inputs": [],
      "stateMutability": "nonpayable",
      "type": "constructor"
    },
    {
      "anonymous": false,
      "inputs": [
        {
          "indexed": true,
          "internalType": "address",
          "name": "addy",
          "type": "address"
        },
        {
          "indexed": false,
          "internalType": "string",
          "name": "message",
          "type": "string"
        }
      ],
      "name": "done",
      "type": "event"
    },
    {
      "inputs": [
        {
          "internalType": "string",
          "name": "description",
          "type": "string"
        },
        {
          "internalType": "address payable",
          "name": "creator",
          "type": "address"
        }
      ],
      "name": "CreateTender",
      "outputs": [],
      "stateMutability": "nonpayable",
      "type": "function"
    },
    {
      "inputs": [],
      "name": "awaiting",
      "outputs": [
        {
          "internalType": "bool",
          "name": "",
          "type": "bool"
        }
      ],
      "stateMutability": "view",
      "type": "function"
    },
    {
      "inputs": [],
      "name": "complete",
      "outputs": [
        {
          "internalType": "bool",
          "name": "",
          "type": "bool"
        }
      ],
      "stateMutability": "view",
      "type": "function"
    },
    {
      "inputs": [],
      "name": "data",
      "outputs": [
        {
          "internalType": "string",
          "name": "",
          "type": "string"
        }
      ],
      "stateMutability": "view",
      "type": "function"
    },
    {
      "inputs": [
        {
          "internalType": "uint256",
          "name": "index",
          "type": "uint256"
        }
      ],
      "name": "finalizeBid",
      "outputs": [],
      "stateMutability": "nonpayable",
      "type": "function"
    },
    {
      "inputs": [],
      "name": "getBidCount",
      "outputs": [
        {
          "internalType": "uint256",
          "name": "ID",
          "type": "uint256"
        }
      ],
      "stateMutability": "view",
      "type": "function"
    },
    {
      "inputs": [
        {
          "internalType": "uint256",
          "name": "index",
          "type": "uint256"
        }
      ],
      "name": "getBidSummary",
      "outputs": [
        {
          "internalType": "address",
          "name": "",
          "type": "address"
        },
        {
          "internalType": "uint256",
          "name": "",
          "type": "uint256"
        },
        {
          "internalType": "string",
          "name": "",
          "type": "string"
        }
      ],
      "stateMutability": "view",
      "type": "function"
    },
    {
      "inputs": [],
      "name": "getSummary",
      "outputs": [
        {
          "internalType": "address",
          "name": "",
          "type": "address"
        },
        {
          "internalType": "string",
          "name": "",
          "type": "string"
        },
        {
          "internalType": "uint256",
          "name": "",
          "type": "uint256"
        }
      ],
      "stateMutability": "view",
      "type": "function"
    },
    {
      "inputs": [],
      "name": "getcontractBalance",
      "outputs": [
        {
          "internalType": "uint256",
          "name": "",
          "type": "uint256"
        }
      ],
      "stateMutability": "view",
      "type": "function"
    },
    {
      "inputs": [
        {
          "internalType": "uint256",
          "name": "",
          "type": "uint256"
        }
      ],
      "name": "hiddenBids",
      "outputs": [
        {
          "internalType": "uint256",
          "name": "ID",
          "type": "uint256"
        },
        {
          "internalType": "uint256",
          "name": "bidAmount",
          "type": "uint256"
        },
        {
          "internalType": "string",
          "name": "bid",
          "type": "string"
        }
      ],
      "stateMutability": "view",
      "type": "function"
    },
    {
      "inputs": [
        {
          "internalType": "uint256",
          "name": "bidAmount",
          "type": "uint256"
        },
        {
          "internalType": "string",
          "name": "desc",
          "type": "string"
        }
      ],
      "name": "makeBid",
      "outputs": [],
      "stateMutability": "nonpayable",
      "type": "function"
    },
    {
      "inputs": [],
      "name": "manager",
      "outputs": [
        {
          "internalType": "address payable",
          "name": "",
          "type": "address"
        }
      ],
      "stateMutability": "view",
      "type": "function"
    },
    {
      "inputs": [
        {
          "internalType": "uint256",
          "name": "_amt",
          "type": "uint256"
        }
      ],
      "name": "payBid",
      "outputs": [],
      "stateMutability": "payable",
      "type": "function"
    },
    {
      "inputs": [],
      "name": "recievePay",
      "outputs": [],
      "stateMutability": "nonpayable",
      "type": "function"
    },
    {
      "inputs": [],
      "name": "status",
      "outputs": [
        {
          "internalType": "string",
          "name": "",
          "type": "string"
        },
        {
          "internalType": "bool",
          "name": "",
          "type": "bool"
        },
        {
          "internalType": "string",
          "name": "",
          "type": "string"
        },
        {
          "internalType": "bool",
          "name": "",
          "type": "bool"
        }
      ],
      "stateMutability": "view",
      "type": "function"
    },
    {
      "inputs": [],
      "name": "verifyManager",
      "outputs": [
        {
          "internalType": "bool",
          "name": "",
          "type": "bool"
        }
      ],
      "stateMutability": "view",
      "type": "function"
    },
    {
      "inputs": [],
      "name": "winIndex",
      "outputs": [
        {
          "internalType": "uint256",
          "name": "",
          "type": "uint256"
        }
      ],
      "stateMutability": "view",
      "type": "function"
    },
    {
      "inputs": [],
      "name": "winner",
      "outputs": [
        {
          "internalType": "address",
          "name": "bidder",
          "type": "address"
        },
        {
          "internalType": "uint256",
          "name": "bidAmount",
          "type": "uint256"
        },
        {
          "internalType": "string",
          "name": "bid",
          "type": "string"
        }
      ],
      "stateMutability": "view",
      "type": "function"
    },
    {
      "inputs": [
        {
          "internalType": "address payable",
          "name": "reciever",
          "type": "address"
        }
      ],
      "name": "withdrawFees",
      "outputs": [],
      "stateMutability": "nonpayable",
      "type": "function"
    }
  ],
  "bytecode": "0x608060405234801561001057600080fd5b5033600160006101000a81548173ffffffffffffffffffffffffffffffffffffffff021916908373ffffffffffffffffffffffffffffffffffffffff1602179055506121b1806100616000396000f3fe6080604052600436106101145760003560e01c8063481c6a75116100a057806391e22d8f1161006457806391e22d8f14610351578063c8f170941461037a578063cb6cbe8f146103b9578063dfbf53ae146103e2578063f82e15521461040f57610114565b8063481c6a751461027a578063522e1177146102a55780635d73753f146102d057806373d4a13a146102fb5780638e4d50531461032657610114565b8063200d2ed2116100e7578063200d2ed2146101b457806328f6a48a146101e25780632a4230e21461020d5780634051ddac146102365780634281cebf1461026357610114565b80630a46572f1461011957806310d2f82f14610144578063164e68de1461016f5780631e1769ed14610198575b600080fd5b34801561012557600080fd5b5061012e61044e565b60405161013b91906112f3565b60405180910390f35b34801561015057600080fd5b50610159610454565b6040516101669190611329565b60405180910390f35b34801561017b57600080fd5b50610196600480360381019061019191906113b6565b6104ac565b005b6101b260048036038101906101ad919061140f565b610586565b005b3480156101c057600080fd5b506101c9610726565b6040516101d994939291906114cc565b60405180910390f35b3480156101ee57600080fd5b506101f76107d3565b60405161020491906112f3565b60405180910390f35b34801561021957600080fd5b50610234600480360381019061022f9190611654565b6107e0565b005b34801561024257600080fd5b5061024b6109ec565b60405161025a939291906116d1565b60405180910390f35b34801561026f57600080fd5b50610278610ab4565b005b34801561028657600080fd5b5061028f610c22565b60405161029c919061171e565b60405180910390f35b3480156102b157600080fd5b506102ba610c48565b6040516102c79190611329565b60405180910390f35b3480156102dc57600080fd5b506102e5610c5b565b6040516102f29190611329565b60405180910390f35b34801561030757600080fd5b50610310610c6e565b60405161031d9190611739565b60405180910390f35b34801561033257600080fd5b5061033b610cfc565b60405161034891906112f3565b60405180910390f35b34801561035d57600080fd5b506103786004803603810190610373919061175b565b610d04565b005b34801561038657600080fd5b506103a1600480360381019061039c919061140f565b610e31565b6040516103b0939291906117b7565b60405180910390f35b3480156103c557600080fd5b506103e060048036038101906103db919061140f565b610ef3565b005b3480156103ee57600080fd5b506103f76110eb565b604051610406939291906117f5565b60405180910390f35b34801561041b57600080fd5b506104366004803603810190610431919061140f565b6111ab565b604051610445939291906117f5565b60405180910390f35b60075481565b60003373ffffffffffffffffffffffffffffffffffffffff16600160009054906101000a900473ffffffffffffffffffffffffffffffffffffffff1673ffffffffffffffffffffffffffffffffffffffff1614905090565b600160009054906101000a900473ffffffffffffffffffffffffffffffffffffffff1673ffffffffffffffffffffffffffffffffffffffff163373ffffffffffffffffffffffffffffffffffffffff161461053c576040517f08c379a00000000000000000000000000000000000000000000000000000000081526004016105339061187f565b60405180910390fd5b8073ffffffffffffffffffffffffffffffffffffffff166108fc479081150290604051600060405180830381858888f19350505050158015610582573d6000803e3d6000fd5b5050565b600460000160009054906101000a900473ffffffffffffffffffffffffffffffffffffffff1673ffffffffffffffffffffffffffffffffffffffff163373ffffffffffffffffffffffffffffffffffffffff1614610619576040517f08c379a0000000000000000000000000000000000000000000000000000000008152600401610610906118eb565b60405180910390fd5b60085434101561065e576040517f08c379a000000000000000000000000000000000000000000000000000000000815260040161065590611957565b60405180910390fd5b60085481146106a2576040517f08c379a0000000000000000000000000000000000000000000000000000000008152600401610699906119c3565b60405180910390fd5b6000600160156101000a81548160ff02191690831515021790555060018060166101000a81548160ff0219169083151502179055503373ffffffffffffffffffffffffffffffffffffffff167fddb3e8e092f582b287e510e57287106c0231b91b97d25c5872442924378808e960405161071b90611a2f565b60405180910390a250565b6060600060606000806040518060400160405280600a81526020017f636f6d706c6574653a2000000000000000000000000000000000000000000000815250905060006040518060400160405280600981526020017f41776174696e673a200000000000000000000000000000000000000000000000815250905081600160169054906101000a900460ff1682600160159054906101000a900460ff169550955095509550505090919293565b6000600280549050905090565b600160009054906101000a900473ffffffffffffffffffffffffffffffffffffffff1673ffffffffffffffffffffffffffffffffffffffff163373ffffffffffffffffffffffffffffffffffffffff160361083a57600080fd5b600160169054906101000a900460ff161561085457600080fd5b600060405180606001604052803373ffffffffffffffffffffffffffffffffffffffff168152602001848152602001838152509050600281908060018154018082558091505060019003906000526020600020906003020160009091909190915060008201518160000160006101000a81548173ffffffffffffffffffffffffffffffffffffffff021916908373ffffffffffffffffffffffffffffffffffffffff16021790555060208201518160010155604082015181600201908161091b9190611c5b565b5050506000604051806060016040528060028054905081526020018581526020018481525090506003819080600181540180825580915050600190039060005260206000209060030201600090919091909150600082015181600001556020820151816001015560408201518160020190816109979190611c5b565b5050503373ffffffffffffffffffffffffffffffffffffffff167fddb3e8e092f582b287e510e57287106c0231b91b97d25c5872442924378808e96040516109de90611d79565b60405180910390a250505050565b600060606000600160009054906101000a900473ffffffffffffffffffffffffffffffffffffffff166000600280549050818054610a2990611a7e565b80601f0160208091040260200160405190810160405280929190818152602001828054610a5590611a7e565b8015610aa25780601f10610a7757610100808354040283529160200191610aa2565b820191906000526020600020905b815481529060010190602001808311610a8557829003601f168201915b50505050509150925092509250909192565b600160009054906101000a900473ffffffffffffffffffffffffffffffffffffffff1673ffffffffffffffffffffffffffffffffffffffff163373ffffffffffffffffffffffffffffffffffffffff1614610b44576040517f08c379a0000000000000000000000000000000000000000000000000000000008152600401610b3b9061187f565b60405180910390fd5b60646003600854610b559190611dc8565b610b5f9190611e39565b47610b6a9190611e6a565b50600160009054906101000a900473ffffffffffffffffffffffffffffffffffffffff1673ffffffffffffffffffffffffffffffffffffffff166108fc479081150290604051600060405180830381858888f19350505050158015610bd3573d6000803e3d6000fd5b503373ffffffffffffffffffffffffffffffffffffffff167fddb3e8e092f582b287e510e57287106c0231b91b97d25c5872442924378808e9604051610c1890611eea565b60405180910390a2565b600160009054906101000a900473ffffffffffffffffffffffffffffffffffffffff1681565b600160169054906101000a900460ff1681565b600160159054906101000a900460ff1681565b60008054610c7b90611a7e565b80601f0160208091040260200160405190810160405280929190818152602001828054610ca790611a7e565b8015610cf45780601f10610cc957610100808354040283529160200191610cf4565b820191906000526020600020905b815481529060010190602001808311610cd757829003601f168201915b505050505081565b600047905090565b600160149054906101000a900460ff1615610d54576040517f08c379a0000000000000000000000000000000000000000000000000000000008152600401610d4b90611f56565b60405180910390fd5b80600160006101000a81548173ffffffffffffffffffffffffffffffffffffffff021916908373ffffffffffffffffffffffffffffffffffffffff1602179055508160009081610da49190611c5b565b5060018060146101000a81548160ff021916908315150217905550600160009054906101000a900473ffffffffffffffffffffffffffffffffffffffff1673ffffffffffffffffffffffffffffffffffffffff167fddb3e8e092f582b287e510e57287106c0231b91b97d25c5872442924378808e9604051610e2590611fc2565b60405180910390a25050565b60038181548110610e4157600080fd5b9060005260206000209060030201600091509050806000015490806001015490806002018054610e7090611a7e565b80601f0160208091040260200160405190810160405280929190818152602001828054610e9c90611a7e565b8015610ee95780601f10610ebe57610100808354040283529160200191610ee9565b820191906000526020600020905b815481529060010190602001808311610ecc57829003601f168201915b5050505050905083565b600160009054906101000a900473ffffffffffffffffffffffffffffffffffffffff1673ffffffffffffffffffffffffffffffffffffffff163373ffffffffffffffffffffffffffffffffffffffff1614610f83576040517f08c379a0000000000000000000000000000000000000000000000000000000008152600401610f7a9061187f565b60405180910390fd5b600160169054906101000a900460ff1615610f9d57600080fd5b60028181548110610fb157610fb0611fe2565b5b906000526020600020906003020160046000820160009054906101000a900473ffffffffffffffffffffffffffffffffffffffff168160000160006101000a81548173ffffffffffffffffffffffffffffffffffffffff021916908373ffffffffffffffffffffffffffffffffffffffff16021790555060018201548160010155600282018160020190816110469190612027565b509050508060078190555060046001015460088190555060018060156101000a81548160ff021916908315150217905550600460000160009054906101000a900473ffffffffffffffffffffffffffffffffffffffff1673ffffffffffffffffffffffffffffffffffffffff167fddb3e8e092f582b287e510e57287106c0231b91b97d25c5872442924378808e96040516110e09061215b565b60405180910390a250565b60048060000160009054906101000a900473ffffffffffffffffffffffffffffffffffffffff169080600101549080600201805461112890611a7e565b80601f016020809104026020016040519081016040528092919081815260200182805461115490611a7e565b80156111a15780601f10611176576101008083540402835291602001916111a1565b820191906000526020600020905b81548152906001019060200180831161118457829003601f168201915b5050505050905083565b6000806060600284815481106111c4576111c3611fe2565b5b906000526020600020906003020160000160009054906101000a900473ffffffffffffffffffffffffffffffffffffffff166002858154811061120a57611209611fe2565b5b906000526020600020906003020160010154600286815481106112305761122f611fe2565b5b906000526020600020906003020160020180805461124d90611a7e565b80601f016020809104026020016040519081016040528092919081815260200182805461127990611a7e565b80156112c65780601f1061129b576101008083540402835291602001916112c6565b820191906000526020600020905b8154815290600101906020018083116112a957829003601f168201915b505050505090509250925092509193909250565b6000819050919050565b6112ed816112da565b82525050565b600060208201905061130860008301846112e4565b92915050565b60008115159050919050565b6113238161130e565b82525050565b600060208201905061133e600083018461131a565b92915050565b6000604051905090565b600080fd5b600080fd5b600073ffffffffffffffffffffffffffffffffffffffff82169050919050565b600061138382611358565b9050919050565b61139381611378565b811461139e57600080fd5b50565b6000813590506113b08161138a565b92915050565b6000602082840312156113cc576113cb61134e565b5b60006113da848285016113a1565b91505092915050565b6113ec816112da565b81146113f757600080fd5b50565b600081359050611409816113e3565b92915050565b6000602082840312156114255761142461134e565b5b6000611433848285016113fa565b91505092915050565b600081519050919050565b600082825260208201905092915050565b60005b8381101561147657808201518184015260208101905061145b565b60008484015250505050565b6000601f19601f8301169050919050565b600061149e8261143c565b6114a88185611447565b93506114b8818560208601611458565b6114c181611482565b840191505092915050565b600060808201905081810360008301526114e68187611493565b90506114f5602083018661131a565b81810360408301526115078185611493565b9050611516606083018461131a565b95945050505050565b600080fd5b600080fd5b7f4e487b7100000000000000000000000000000000000000000000000000000000600052604160045260246000fd5b61156182611482565b810181811067ffffffffffffffff821117156115805761157f611529565b5b80604052505050565b6000611593611344565b905061159f8282611558565b919050565b600067ffffffffffffffff8211156115bf576115be611529565b5b6115c882611482565b9050602081019050919050565b82818337600083830152505050565b60006115f76115f2846115a4565b611589565b90508281526020810184848401111561161357611612611524565b5b61161e8482856115d5565b509392505050565b600082601f83011261163b5761163a61151f565b5b813561164b8482602086016115e4565b91505092915050565b6000806040838503121561166b5761166a61134e565b5b6000611679858286016113fa565b925050602083013567ffffffffffffffff81111561169a57611699611353565b5b6116a685828601611626565b9150509250929050565b60006116bb82611358565b9050919050565b6116cb816116b0565b82525050565b60006060820190506116e660008301866116c2565b81810360208301526116f88185611493565b905061170760408301846112e4565b949350505050565b61171881611378565b82525050565b6000602082019050611733600083018461170f565b92915050565b600060208201905081810360008301526117538184611493565b905092915050565b600080604083850312156117725761177161134e565b5b600083013567ffffffffffffffff8111156117905761178f611353565b5b61179c85828601611626565b92505060206117ad858286016113a1565b9150509250929050565b60006060820190506117cc60008301866112e4565b6117d960208301856112e4565b81810360408301526117eb8184611493565b9050949350505050565b600060608201905061180a60008301866116c2565b61181760208301856112e4565b81810360408301526118298184611493565b9050949350505050565b7f4163636573732044656e69656400000000000000000000000000000000000000600082015250565b6000611869600d83611447565b915061187482611833565b602082019050919050565b600060208201905081810360008301526118988161185c565b9050919050565b7f4e6f7420617574686f72697a6564206269646465720000000000000000000000600082015250565b60006118d5601583611447565b91506118e08261189f565b602082019050919050565b60006020820190508181036000830152611904816118c8565b9050919050565b7f696e73756666696369656e742066756e64732100000000000000000000000000600082015250565b6000611941601383611447565b915061194c8261190b565b602082019050919050565b6000602082019050818103600083015261197081611934565b9050919050565b7f76616c7565206973206e6f742077686174207761732061677265656400000000600082015250565b60006119ad601c83611447565b91506119b882611977565b602082019050919050565b600060208201905081810360008301526119dc816119a0565b9050919050565b7f5061796d656e74206d6164650000000000000000000000000000000000000000600082015250565b6000611a19600c83611447565b9150611a24826119e3565b602082019050919050565b60006020820190508181036000830152611a4881611a0c565b9050919050565b7f4e487b7100000000000000000000000000000000000000000000000000000000600052602260045260246000fd5b60006002820490506001821680611a9657607f821691505b602082108103611aa957611aa8611a4f565b5b50919050565b60008190508160005260206000209050919050565b60006020601f8301049050919050565b600082821b905092915050565b600060088302611b117fffffffffffffffffffffffffffffffffffffffffffffffffffffffffffffffff82611ad4565b611b1b8683611ad4565b95508019841693508086168417925050509392505050565b6000819050919050565b6000611b58611b53611b4e846112da565b611b33565b6112da565b9050919050565b6000819050919050565b611b7283611b3d565b611b86611b7e82611b5f565b848454611ae1565b825550505050565b600090565b611b9b611b8e565b611ba6818484611b69565b505050565b5b81811015611bca57611bbf600082611b93565b600181019050611bac565b5050565b601f821115611c0f57611be081611aaf565b611be984611ac4565b81016020851015611bf8578190505b611c0c611c0485611ac4565b830182611bab565b50505b505050565b600082821c905092915050565b6000611c3260001984600802611c14565b1980831691505092915050565b6000611c4b8383611c21565b9150826002028217905092915050565b611c648261143c565b67ffffffffffffffff811115611c7d57611c7c611529565b5b611c878254611a7e565b611c92828285611bce565b600060209050601f831160018114611cc55760008415611cb3578287015190505b611cbd8582611c3f565b865550611d25565b601f198416611cd386611aaf565b60005b82811015611cfb57848901518255600182019150602085019450602081019050611cd6565b86831015611d185784890151611d14601f891682611c21565b8355505b6001600288020188555050505b505050505050565b7f437265617465642061206e657720626964000000000000000000000000000000600082015250565b6000611d63601183611447565b9150611d6e82611d2d565b602082019050919050565b60006020820190508181036000830152611d9281611d56565b9050919050565b7f4e487b7100000000000000000000000000000000000000000000000000000000600052601160045260246000fd5b6000611dd3826112da565b9150611dde836112da565b9250828202611dec816112da565b91508282048414831517611e0357611e02611d99565b5b5092915050565b7f4e487b7100000000000000000000000000000000000000000000000000000000600052601260045260246000fd5b6000611e44826112da565b9150611e4f836112da565b925082611e5f57611e5e611e0a565b5b828204905092915050565b6000611e75826112da565b9150611e80836112da565b9250828203905081811115611e9857611e97611d99565b5b92915050565b7f436c61696d6564207061796d656e740000000000000000000000000000000000600082015250565b6000611ed4600f83611447565b9150611edf82611e9e565b602082019050919050565b60006020820190508181036000830152611f0381611ec7565b9050919050565b7f41756374696f6e207374696c6c20616374697665000000000000000000000000600082015250565b6000611f40601483611447565b9150611f4b82611f0a565b602082019050919050565b60006020820190508181036000830152611f6f81611f33565b9050919050565b7f4372656174656420612074656e64657200000000000000000000000000000000600082015250565b6000611fac601083611447565b9150611fb782611f76565b602082019050919050565b60006020820190508181036000830152611fdb81611f9f565b9050919050565b7f4e487b7100000000000000000000000000000000000000000000000000000000600052603260045260246000fd5b60008154905061202081611a7e565b9050919050565b81810361203557505061210d565b61203e82612011565b67ffffffffffffffff81111561205757612056611529565b5b6120618254611a7e565b61206c828285611bce565b6000601f83116001811461209b5760008415612089578287015490505b6120938582611c3f565b865550612106565b601f1984166120a987611aaf565b96506120b486611aaf565b60005b828110156120dc578489015482556001820191506001850194506020810190506120b7565b868310156120f957848901546120f5601f891682611c21565b8355505b6001600288020188555050505b5050505050505b565b7f417574686f72697a656400000000000000000000000000000000000000000000600082015250565b6000612145600a83611447565b91506121508261210f565b602082019050919050565b6000602082019050818103600083015261217481612138565b905091905056fea2646970667358221220a26a28b61a32ff530293ae690296b30e00c3c48af69e74c01e8e94fcb68c27c564736f6c63430008110033",
  "linkReferences": {},
  "deployedLinkReferences": {}
}